:020000040800F2
:1000000000000120050300080B030008110300088D
:1000100033030008390300085B03000800000000F8
:100020000000000000000000000000007D03000848
:100030008303000800000000890300088F03000804
:10004000AD030008AD030008AD030008AD030008D0
:10005000AD030008AD030008AD030008AD030008C0
:10006000AD030008AD030008AD030008AD030008B0
:10007000AD030008AD030008AD030008AD030008A0
:10008000AD030008AD030008AD0300080000000048
:10009000000000000000000000000000AD030008A8
:1000A000AD030008AD030008AD030008AD03000870
:1000B000AD030008AD030008AD030008AD03000860
:1000C000AD030008AD030008AD030008AD03000850
:1000D000AD030008AD030008AD03000800000000F8
:1000E000AD030008AD030008AD03000800000000E8
:1000F000000000000000000000000000AD03000848
:1001000000000000AD030008AD030008AD030008C7
:1001100000000000000000000000000000000000DF
:10012000AD030008AD030008AD030008AD030008EF
:10013000AD03000800000000000000000000000007
:10014000000000000000000000000000AD030008F7
:10015000AD030008AD030008AD030008AD030008BF
:10016000AD030008AD03000800000000000000001F
:10017000000000000000000000000000000000007F
:1001800000000000AD0300080000000000000000B7
:10019000AD03000880B596B000AF00F037F94F4BC3
:1001A0007B6524E07B6D1A1D7A651B683B647B6D63
:1001B0001A1D7A651B68FB637B6D1A1D7A651B68C7
:1001C000BB633B6C7B63FB6B3B63BB6BFB623B6B5F
:1001D000BB6207E07A6B131D7B63BB6A191DB962B2
:1001E00012681A60FA6ABB6A9A42F3D800BF7B6D44
:1001F0003B4A9342D6D33B4B3B651AE03B6D1A1DFD
:100200003A651B68BB643B6D1A1D3A651B687B64CD
:10021000BB6C7B627B6C3B627B6AFB6104E0FB69CD
:100220001A1DFA6100221A603A6AFB699A42F6D8EE
:1002300000BF3B6D2C4A9342E0D300F0F5F83A1D25
:1002400007F108031146184600F0CEF8274A284B5C
:10025000D31A9B103B610023FB6007E0244AFB6834
:1002600052F823309847FB680133FB603A69FB681A
:100270009A42F3DC1F4A204BD31A9B103B610023A8
:10028000FB6007E01C4AFB6852F823309847FB6884
:100290000133FB603A69FB689A42F3DC00BFBB683C
:1002A0007A681146184600F06BF9F864134A144B4B
:1002B000D31A9B10BB61BB697B6108E07B69013B82
:1002C0000F4A52F8233098477B69013B7B617B6979
:1002D000002BF3DC00BFF86C00F080F8B4030008DA
:1002E000CC030008CC030008DC030008DC03000892
:1002F000DC030008DC030008DC030008DC03000862
:10030000DC0300082548004700BF80B400AFFEE7CB
:100310001EF0040F0CBFEFF30880EFF30980714665
:100320001F4A104700BF80B483B000AF78603960C7
:10033000FEE780B400AFFEE71EF0040F0CBFEFF342
:100340000880EFF309807146164A104700BF80B459
:1003500083B000AF78603960FEE71EF0040F0CBF79
:10036000EFF30880EFF3098071460F4A104700BF92
:1003700080B483B000AF78603960FEE780B400AF2E
:10038000FEE780B400AFFEE780B400AFFEE780B4C4
:1003900000AF00BFBD4680BC70470000950100085B
:1003A000270300084F0300087103000880B400AF62
:0203B000FEE766
:1003B4002C0B000800000020380000202C0B000843
:1003C4000000001000000010380000205000002041
:0803D400000000100000001001
:1003DC0080B582B000AF786000F03CF880B483B098
:1003EC0000AF786039607B6801221A603B68034A71
:1003FC001A6000BF0C37BD4680BC7047000000205F
:10040C0080B500AF00F02AF8024B034A9A6000BF97
:10041C0080BD00BF00ED00E00000000880B500AF1B
:10042C0000F028F800BF80BD80B400AFBFF34F8F41
:10043C0000BF064BDB6803F4E0620449044B134332
:10044C00CB60BFF34F8F00BF00BFFDE700ED00E0B6
:10045C000400FA0580B500AFFFF7E6FF80B400AFEB
:10046C00034B4FF000629A6000BFBD4680BC7047E2
:10047C0000ED00E080B487B000AF00233B610023A7
:10048C007B610223FB600023BB6002237B60344B47
:10049C009B6803F00C033B613B69082B11D03B6953
:1004AC00082B44D83B69002B03D03B69042B04D0A8
:1004BC003DE02C4B2C4A1A603DE02A4B2B4A1A602B
:1004CC0039E0274B5B689B0D03F00103BB60244BA9
:1004DC005B6803F03F037B60BB68002B0CD0234AA6
:1004EC007B68B2FBF3F31E4A52689209C2F308020E
:1004FC0002FB03F37B610BE01B4A7B68B2FBF3F35B
:10050C00174A52689209C2F3080202FB03F37B619B
:10051C00134B5B681B0C03F0030301335B00FB60A4
:10052C007A69FB68B2FBF3F30E4A136003E00D4BE0
:10053C000D4A1A6000BF0A4B9B681B0903F00F039E
:10054C000B4AD35C3B61074B1A683B6922FA03F3F5
:10055C00044A136000BF1C37BD4680BC704700BF07
:10056C0000380240080000200024F40000127A0039
:10057C001C0B000880B500AF00F03AF9002000F029
:10058C0045F9032000F042F9112000F03FF900F08A
:10059C0009FA00F08FF90021412000F093FA03468C
:1005AC001A46794B1A600121412000F08BFA034660
:1005BC001A46764B1A60764B1B68012B3CD1724B5A
:1005CC001B68002B38D1734B1B68002B34D0724B3B
:1005DC001B68002B0CBF01230023DBB21A466E4BA9
:1005EC001A606D4B1B68002B02D0012B14D024E039
:1005FC0042F2107000F07CF90121052000F03EFA67
:10060C0001210F2000F03AFA022000F0D3F8634BDE
:10061C004FF4FA621A6010E04FF4FA6000F068F9D7
:10062C000021052000F02AFA00210F2000F026FA04
:10063C00042000F0BFF800E000BF594B1B68012BF1
:10064C0035D1524B1B68002B31D1534B1B68002BFF
:10065C002DD1504B1B68002B0CBF01230023DBB2A8
:10066C001A464C4B1A604B4B1B68002B02D0012BCB
:10067C0005D019E001210F2000F000FA14E042F23D
:10068C00107000F035F90021052000F0F7F9002179
:10069C000A2000F0F3F901210F2000F0EFF93F4B95
:1006AC004FF47A721A6000BF3E4B00221A603A4B2C
:1006BC001B68002B1CD1374B1B68002B18D000F08B
:1006CC0057F90246384B1B689A4211D1324B012222
:1006DC001A604FF4FA6000F00BF90021052000F0CD
:1006EC00CDF900210A2000F0C9F9042000F062F8CD
:1006FC00294B1B68002B12D1264B1B68002B0ED0EC
:10070C0000F036F90246254B1B689A4207D10021AE
:10071C000F2000F0B3F9214B4FF0FF321A60214B40
:10072C001B68002B26DD00F023F902461F4B1B68CB
:10073C009A421FD11E4B1B78002B0CBF01230023A8
:10074C00DBB219460A2000F099F9194B1B78002BE3
:10075C000CBF01230023DBB21A46154B1A70134B46
:10076C001B6803F5FA73114A13600E4B1B68013BAF
:10077C000C4A1360044B1B68054A1360034B1B683F
:10078C00074A136007E700BF3C0000204000002030
:10079C000C00002018000020140000201C00002079
:1007AC001000002044000020200000204800002001
:1007BC004C00002080B582B000AF786001210A2087
:1007CC0000F05CF9074B4FF4FA721A607B68013B3E
:1007DC00054A1360054B01221A7000BF0837BD464D
:1007EC0080BD00BF48000020440000204C000020C9
:1007FC0080B400AF044B1B68034A43F00103136041
:10080C0000BFBD4680BC70470038024080B485B044
:10081C0000AF0346FB71FB795B09FB73FB7903F0BB
:10082C001F03BB73FB7B032B36D801A252F823F0BA
:10083C004D08000863080008790800088F080008B4
:10084C00184B1B68BA7B012101FA02F21146154ABA
:10085C000B43136021E0144B1B68BA7B012101FA96
:10086C0002F21146104A0B43136016E00F4B1B6843
:10087C00BA7B012101FA02F211460C4A0B431360B8
:10088C000BE00B4B1B68BA7B012101FA02F21146FB
:10089C00074A0B43136000E000BF00BF1437BD468E
:1008AC0080BC704730380240343802404038024037
:1008BC004438024080B500AF0220FFF7A7FF0B4B76
:1008CC001B6840F6B7329A62084B1B68DA68074B14
:1008DC001B6842F00102DA60044B1B685A69034B37
:1008EC001B6842F001025A6100BF80BD2400002049
:1008FC0080B483B000AF78600A4B1B6800225A6248
:10090C00084B1B687A68DA62064B1B681A68054B41
:10091C001B6842F001021A6000BF0C37BD4680BC58
:10092C00704700BF2400002080B483B000AF0F4B91
:10093C001B685A6A0D4B1B68DB6A013B9A420FD14C
:10094C000A4B1B681B6803F00103002B08D0074BF4
:10095C001B681B695BB203F00103FB71012300E010
:10096C00002318460C37BD4680BC7047240000207D
:10097C0080B500AFFFF7D8FF0346002B02D06FF015
:10098C0070430BE0064B1B681B6803F00103002B44
:10099C0001D1002302E0024B1B685B6A184680BD44
:1009AC002400002080B485B000AF0023FB60052339
:1009BC00FB6027E02F4B7B607B681B68FA6852005A
:1009CC00032101FA02F2D2431A407B681A607B6859
:1009DC001B68FA685200012101FA02F21A437B6883
:1009EC001A607B685B680121FA6801FA02F2D24353
:1009FC001A407B685A607B685A687B685A60FB684F
:100A0C000533FB60FB680F2BD4D90023FB6028E077
:100A1C00194BBB60BB681B68FA685200032101FAD2
:100A2C0002F2D2431A40BB681A60BB681A68BB68F2
:100A3C001A60BB68DB68FA685200032101FA02F203
:100A4C00D2431A40BB68DA60BB68DB68FA685200B4
:100A5C00012101FA02F21A43BB68DA60FB68013328
:100A6C00FB60FB68012BD3D900BF00BF1437BD4618
:100A7C0080BC7047000C02400000024080B485B07E
:100A8C0000AF03460A46FB711346BB710C4BFB606F
:100A9C00FB685B69FA79012101FA02F2D2431A4030
:100AAC00FB685A61FB685B69B979FA7901FA02F261
:100ABC001A43FB685A6100BF1437BD4680BC7047AF
:100ACC00000C024080B485B000AF03460A46FB71AF
:100ADC001346BB710023FB73FB79413BBB73BB7BA0
:100AEC000A4A52F82330BB60BB681B69BA790121F2
:100AFC0001FA02F21A40BB7922FA03F3FB73FB7B77
:100B0C0018461437BD4680BC704700BF2800002033
:100B1C0000000000000000000102030406070809A1
:100B2C0038000020000000000024F4000100000048
:100B3C00010000000100000001000000FFFFFFFFAA
:100B4C000F2700000000004000000240000402409B
:080B5C0000080240000C0240F9
:040000050800019559
:00000001FF
